{
  "_format": "hh-sol-artifact-1",
  "contractName": "OTC",
  "sourceName": "contracts/core/OTC.sol",
  "abi": [
    {
      "inputs": [
        {
          "internalType": "contract IVault",
          "name": "_vault",
          "type": "address"
        }
      ],
      "stateMutability": "nonpayable",
      "type": "constructor"
    },
    {
      "anonymous": false,
      "inputs": [
        {
          "indexed": true,
          "internalType": "address",
          "name": "previousOwner",
          "type": "address"
        },
        {
          "indexed": true,
          "internalType": "address",
          "name": "newOwner",
          "type": "address"
        }
      ],
      "name": "OwnershipTransferred",
      "type": "event"
    },
    {
      "inputs": [],
      "name": "closeRedeem",
      "outputs": [],
      "stateMutability": "nonpayable",
      "type": "function"
    },
    {
      "inputs": [],
      "name": "closeSubscribe",
      "outputs": [],
      "stateMutability": "nonpayable",
      "type": "function"
    },
    {
      "inputs": [],
      "name": "openRedeem",
      "outputs": [],
      "stateMutability": "nonpayable",
      "type": "function"
    },
    {
      "inputs": [],
      "name": "openSubscribe",
      "outputs": [],
      "stateMutability": "nonpayable",
      "type": "function"
    },
    {
      "inputs": [],
      "name": "owner",
      "outputs": [
        {
          "internalType": "address",
          "name": "",
          "type": "address"
        }
      ],
      "stateMutability": "view",
      "type": "function"
    },
    {
      "inputs": [
        {
          "internalType": "contract IERC20",
          "name": "token",
          "type": "address"
        },
        {
          "internalType": "uint256",
          "name": "_amount",
          "type": "uint256"
        }
      ],
      "name": "redeem",
      "outputs": [],
      "stateMutability": "nonpayable",
      "type": "function"
    },
    {
      "inputs": [],
      "name": "redeemable",
      "outputs": [
        {
          "internalType": "bool",
          "name": "",
          "type": "bool"
        }
      ],
      "stateMutability": "view",
      "type": "function"
    },
    {
      "inputs": [],
      "name": "renounceOwnership",
      "outputs": [],
      "stateMutability": "nonpayable",
      "type": "function"
    },
    {
      "inputs": [],
      "name": "subscribable",
      "outputs": [
        {
          "internalType": "bool",
          "name": "",
          "type": "bool"
        }
      ],
      "stateMutability": "view",
      "type": "function"
    },
    {
      "inputs": [
        {
          "internalType": "contract IERC20",
          "name": "token",
          "type": "address"
        },
        {
          "internalType": "uint256",
          "name": "_amount",
          "type": "uint256"
        }
      ],
      "name": "subscribe",
      "outputs": [],
      "stateMutability": "nonpayable",
      "type": "function"
    },
    {
      "inputs": [
        {
          "internalType": "address",
          "name": "newOwner",
          "type": "address"
        }
      ],
      "name": "transferOwnership",
      "outputs": [],
      "stateMutability": "nonpayable",
      "type": "function"
    }
  ],
  "bytecode": "0x60806040523480156200001157600080fd5b5060405162001054380380620010548339818101604052810190620000379190620001e9565b620000576200004b6200009f60201b60201c565b620000a760201b60201c565b80600160006101000a81548173ffffffffffffffffffffffffffffffffffffffff021916908373ffffffffffffffffffffffffffffffffffffffff160217905550506200021b565b600033905090565b60008060009054906101000a900473ffffffffffffffffffffffffffffffffffffffff169050816000806101000a81548173ffffffffffffffffffffffffffffffffffffffff021916908373ffffffffffffffffffffffffffffffffffffffff1602179055508173ffffffffffffffffffffffffffffffffffffffff168173ffffffffffffffffffffffffffffffffffffffff167f8be0079c531659141344cd1fd0a4f28419497f9722a3daafe3b4186f6b6457e060405160405180910390a35050565b600080fd5b600073ffffffffffffffffffffffffffffffffffffffff82169050919050565b60006200019d8262000170565b9050919050565b6000620001b18262000190565b9050919050565b620001c381620001a4565b8114620001cf57600080fd5b50565b600081519050620001e381620001b8565b92915050565b6000602082840312156200020257620002016200016b565b5b60006200021284828501620001d2565b91505092915050565b610e29806200022b6000396000f3fe608060405234801561001057600080fd5b50600436106100a95760003560e01c80638da5cb5b116100715780638da5cb5b146101065780638de6928414610124578063a3f8f66c14610140578063ab4bfb291461014a578063dafe525514610154578063f2fde38b14610172576100a9565b80630cf3c3e5146100ae5780631e9a6950146100b85780632445d8cc146100d45780632d7ecd11146100de578063715018a6146100fc575b600080fd5b6100b661018e565b005b6100d260048036038101906100cd9190610879565b6101b2565b005b6100dc6103ab565b005b6100e66103d0565b6040516100f391906108d4565b60405180910390f35b6101046103e3565b005b61010e6103f7565b60405161011b91906108fe565b60405180910390f35b61013e60048036038101906101399190610879565b610420565b005b6101486105a5565b005b6101526105ca565b005b61015c6105ee565b60405161016991906108d4565b60405180910390f35b61018c60048036038101906101879190610945565b610601565b005b610196610684565b60018060156101000a81548160ff021916908315150217905550565b600160159054906101000a900460ff16610201576040517f08c379a00000000000000000000000000000000000000000000000000000000081526004016101f8906109cf565b60405180910390fd5b600160009054906101000a900473ffffffffffffffffffffffffffffffffffffffff1673ffffffffffffffffffffffffffffffffffffffff166326121ff06040518163ffffffff1660e01b8152600401602060405180830381865afa15801561026e573d6000803e3d6000fd5b505050506040513d601f19601f820116820180604052508101906102929190610a2d565b73ffffffffffffffffffffffffffffffffffffffff16639dc29fac33836040518363ffffffff1660e01b81526004016102cc929190610a69565b600060405180830381600087803b1580156102e657600080fd5b505af11580156102fa573d6000803e3d6000fd5b50505050600160009054906101000a900473ffffffffffffffffffffffffffffffffffffffff1673ffffffffffffffffffffffffffffffffffffffff1663f5537ede8333606460638661034d9190610ac1565b6103579190610b32565b6040518463ffffffff1660e01b815260040161037593929190610bc2565b600060405180830381600087803b15801561038f57600080fd5b505af11580156103a3573d6000803e3d6000fd5b505050505050565b6103b3610684565b6000600160156101000a81548160ff021916908315150217905550565b600160159054906101000a900460ff1681565b6103eb610684565b6103f56000610702565b565b60008060009054906101000a900473ffffffffffffffffffffffffffffffffffffffff16905090565b600160149054906101000a900460ff1661046f576040517f08c379a000000000000000000000000000000000000000000000000000000000815260040161046690610c45565b60405180910390fd5b8173ffffffffffffffffffffffffffffffffffffffff166323b872dd33600160009054906101000a900473ffffffffffffffffffffffffffffffffffffffff16846040518463ffffffff1660e01b81526004016104ce93929190610c65565b6020604051808303816000875af11580156104ed573d6000803e3d6000fd5b505050506040513d601f19601f820116820180604052508101906105119190610cc8565b50600160009054906101000a900473ffffffffffffffffffffffffffffffffffffffff1673ffffffffffffffffffffffffffffffffffffffff1663d1d21f1733836040518363ffffffff1660e01b815260040161056f929190610a69565b600060405180830381600087803b15801561058957600080fd5b505af115801561059d573d6000803e3d6000fd5b505050505050565b6105ad610684565b6000600160146101000a81548160ff021916908315150217905550565b6105d2610684565b60018060146101000a81548160ff021916908315150217905550565b600160149054906101000a900460ff1681565b610609610684565b600073ffffffffffffffffffffffffffffffffffffffff168173ffffffffffffffffffffffffffffffffffffffff1603610678576040517f08c379a000000000000000000000000000000000000000000000000000000000815260040161066f90610d67565b60405180910390fd5b61068181610702565b50565b61068c6107c6565b73ffffffffffffffffffffffffffffffffffffffff166106aa6103f7565b73ffffffffffffffffffffffffffffffffffffffff1614610700576040517f08c379a00000000000000000000000000000000000000000000000000000000081526004016106f790610dd3565b60405180910390fd5b565b60008060009054906101000a900473ffffffffffffffffffffffffffffffffffffffff169050816000806101000a81548173ffffffffffffffffffffffffffffffffffffffff021916908373ffffffffffffffffffffffffffffffffffffffff1602179055508173ffffffffffffffffffffffffffffffffffffffff168173ffffffffffffffffffffffffffffffffffffffff167f8be0079c531659141344cd1fd0a4f28419497f9722a3daafe3b4186f6b6457e060405160405180910390a35050565b600033905090565b600080fd5b600073ffffffffffffffffffffffffffffffffffffffff82169050919050565b60006107fe826107d3565b9050919050565b6000610810826107f3565b9050919050565b61082081610805565b811461082b57600080fd5b50565b60008135905061083d81610817565b92915050565b6000819050919050565b61085681610843565b811461086157600080fd5b50565b6000813590506108738161084d565b92915050565b600080604083850312156108905761088f6107ce565b5b600061089e8582860161082e565b92505060206108af85828601610864565b9150509250929050565b60008115159050919050565b6108ce816108b9565b82525050565b60006020820190506108e960008301846108c5565b92915050565b6108f8816107f3565b82525050565b600060208201905061091360008301846108ef565b92915050565b610922816107f3565b811461092d57600080fd5b50565b60008135905061093f81610919565b92915050565b60006020828403121561095b5761095a6107ce565b5b600061096984828501610930565b91505092915050565b600082825260208201905092915050565b7f4f54433a2063757272656e746c79206e6f7420636f6e7665727469626c650000600082015250565b60006109b9601e83610972565b91506109c482610983565b602082019050919050565b600060208201905081810360008301526109e8816109ac565b9050919050565b60006109fa826107f3565b9050919050565b610a0a816109ef565b8114610a1557600080fd5b50565b600081519050610a2781610a01565b92915050565b600060208284031215610a4357610a426107ce565b5b6000610a5184828501610a18565b91505092915050565b610a6381610843565b82525050565b6000604082019050610a7e60008301856108ef565b610a8b6020830184610a5a565b9392505050565b7f4e487b7100000000000000000000000000000000000000000000000000000000600052601160045260246000fd5b6000610acc82610843565b9150610ad783610843565b9250828202610ae581610843565b91508282048414831517610afc57610afb610a92565b5b5092915050565b7f4e487b7100000000000000000000000000000000000000000000000000000000600052601260045260246000fd5b6000610b3d82610843565b9150610b4883610843565b925082610b5857610b57610b03565b5b828204905092915050565b6000819050919050565b6000610b88610b83610b7e846107d3565b610b63565b6107d3565b9050919050565b6000610b9a82610b6d565b9050919050565b6000610bac82610b8f565b9050919050565b610bbc81610ba1565b82525050565b6000606082019050610bd76000830186610bb3565b610be460208301856108ef565b610bf16040830184610a5a565b949350505050565b7f4f54433a2063757272656e746c7920756e737562736372696265640000000000600082015250565b6000610c2f601b83610972565b9150610c3a82610bf9565b602082019050919050565b60006020820190508181036000830152610c5e81610c22565b9050919050565b6000606082019050610c7a60008301866108ef565b610c8760208301856108ef565b610c946040830184610a5a565b949350505050565b610ca5816108b9565b8114610cb057600080fd5b50565b600081519050610cc281610c9c565b92915050565b600060208284031215610cde57610cdd6107ce565b5b6000610cec84828501610cb3565b91505092915050565b7f4f776e61626c653a206e6577206f776e657220697320746865207a65726f206160008201527f6464726573730000000000000000000000000000000000000000000000000000602082015250565b6000610d51602683610972565b9150610d5c82610cf5565b604082019050919050565b60006020820190508181036000830152610d8081610d44565b9050919050565b7f4f776e61626c653a2063616c6c6572206973206e6f7420746865206f776e6572600082015250565b6000610dbd602083610972565b9150610dc882610d87565b602082019050919050565b60006020820190508181036000830152610dec81610db0565b905091905056fea264697066735822122007b964d4e175393ec19d2b5a32d9ca2ee01b7b0e0b7e161d9784f8de56214fb764736f6c63430008120033",
  "linkReferences": {},
  "deployedLinkReferences": {}
}