{
  "_format": "hh-sol-artifact-1",
  "contractName": "Panel",
  "sourceName": "contracts/core/Panel.sol",
  "abi": [
    {
      "inputs": [
        {
          "internalType": "contract IVault",
          "name": "_vault",
          "type": "address"
        },
        {
          "internalType": "contract IOTC",
          "name": "_otc",
          "type": "address"
        },
        {
          "internalType": "contract IPools",
          "name": "_pools",
          "type": "address"
        },
        {
          "internalType": "contract IPurchase",
          "name": "_purchase",
          "type": "address"
        }
      ],
      "stateMutability": "nonpayable",
      "type": "constructor"
    },
    {
      "anonymous": false,
      "inputs": [
        {
          "indexed": true,
          "internalType": "address",
          "name": "previousOwner",
          "type": "address"
        },
        {
          "indexed": true,
          "internalType": "address",
          "name": "newOwner",
          "type": "address"
        }
      ],
      "name": "OwnershipTransferred",
      "type": "event"
    },
    {
      "inputs": [],
      "name": "otc_closeRedeem",
      "outputs": [],
      "stateMutability": "nonpayable",
      "type": "function"
    },
    {
      "inputs": [],
      "name": "otc_closeSubscribe",
      "outputs": [],
      "stateMutability": "nonpayable",
      "type": "function"
    },
    {
      "inputs": [],
      "name": "otc_openRedeem",
      "outputs": [],
      "stateMutability": "nonpayable",
      "type": "function"
    },
    {
      "inputs": [],
      "name": "otc_openSubscribe",
      "outputs": [],
      "stateMutability": "nonpayable",
      "type": "function"
    },
    {
      "inputs": [],
      "name": "owner",
      "outputs": [
        {
          "internalType": "address",
          "name": "",
          "type": "address"
        }
      ],
      "stateMutability": "view",
      "type": "function"
    },
    {
      "inputs": [
        {
          "internalType": "contract IERC20",
          "name": "token",
          "type": "address"
        },
        {
          "internalType": "uint256",
          "name": "_amount",
          "type": "uint256"
        },
        {
          "internalType": "uint256",
          "name": "_f_amount",
          "type": "uint256"
        },
        {
          "internalType": "uint256",
          "name": "_feeRate",
          "type": "uint256"
        }
      ],
      "name": "pools_create",
      "outputs": [],
      "stateMutability": "nonpayable",
      "type": "function"
    },
    {
      "inputs": [
        {
          "internalType": "contract IERC20",
          "name": "token",
          "type": "address"
        }
      ],
      "name": "pools_destroy",
      "outputs": [],
      "stateMutability": "nonpayable",
      "type": "function"
    },
    {
      "inputs": [],
      "name": "renounceOwnership",
      "outputs": [],
      "stateMutability": "nonpayable",
      "type": "function"
    },
    {
      "inputs": [
        {
          "internalType": "address",
          "name": "newOwner",
          "type": "address"
        }
      ],
      "name": "transferOwnership",
      "outputs": [],
      "stateMutability": "nonpayable",
      "type": "function"
    },
    {
      "inputs": [
        {
          "internalType": "contract IERC20",
          "name": "token",
          "type": "address"
        },
        {
          "internalType": "address",
          "name": "account",
          "type": "address"
        }
      ],
      "name": "vault_authorizePermit",
      "outputs": [],
      "stateMutability": "nonpayable",
      "type": "function"
    },
    {
      "inputs": [
        {
          "internalType": "contract IERC20",
          "name": "token",
          "type": "address"
        },
        {
          "internalType": "address",
          "name": "account",
          "type": "address"
        }
      ],
      "name": "vault_revokePermit",
      "outputs": [],
      "stateMutability": "nonpayable",
      "type": "function"
    }
  ],
  "bytecode": "0x60806040523480156200001157600080fd5b50604051620010713803806200107183398181016040528101906200003791906200037e565b620000576200004b6200016560201b60201c565b6200016d60201b60201c565b83600160006101000a81548173ffffffffffffffffffffffffffffffffffffffff021916908373ffffffffffffffffffffffffffffffffffffffff16021790555082600260006101000a81548173ffffffffffffffffffffffffffffffffffffffff021916908373ffffffffffffffffffffffffffffffffffffffff16021790555081600360006101000a81548173ffffffffffffffffffffffffffffffffffffffff021916908373ffffffffffffffffffffffffffffffffffffffff16021790555080600460006101000a81548173ffffffffffffffffffffffffffffffffffffffff021916908373ffffffffffffffffffffffffffffffffffffffff16021790555050505050620003f0565b600033905090565b60008060009054906101000a900473ffffffffffffffffffffffffffffffffffffffff169050816000806101000a81548173ffffffffffffffffffffffffffffffffffffffff021916908373ffffffffffffffffffffffffffffffffffffffff1602179055508173ffffffffffffffffffffffffffffffffffffffff168173ffffffffffffffffffffffffffffffffffffffff167f8be0079c531659141344cd1fd0a4f28419497f9722a3daafe3b4186f6b6457e060405160405180910390a35050565b600080fd5b600073ffffffffffffffffffffffffffffffffffffffff82169050919050565b6000620002638262000236565b9050919050565b6000620002778262000256565b9050919050565b62000289816200026a565b81146200029557600080fd5b50565b600081519050620002a9816200027e565b92915050565b6000620002bc8262000256565b9050919050565b620002ce81620002af565b8114620002da57600080fd5b50565b600081519050620002ee81620002c3565b92915050565b6000620003018262000256565b9050919050565b6200031381620002f4565b81146200031f57600080fd5b50565b600081519050620003338162000308565b92915050565b6000620003468262000256565b9050919050565b620003588162000339565b81146200036457600080fd5b50565b60008151905062000378816200034d565b92915050565b600080600080608085870312156200039b576200039a62000231565b5b6000620003ab8782880162000298565b9450506020620003be87828801620002dd565b9350506040620003d18782880162000322565b9250506060620003e48782880162000367565b91505092959194509250565b610c7180620004006000396000f3fe608060405234801561001057600080fd5b50600436106100a95760003560e01c80637a528395116100715780637a528395146101165780638da5cb5b14610120578063a061e40d1461013e578063b6bbe6ba14610148578063f2fde38b14610152578063f34a200f1461016e576100a9565b80631088c83b146100ae5780631b6d8bee146100ca5780633b7369d1146100e65780636c8c5551146100f0578063715018a61461010c575b600080fd5b6100c860048036038101906100c391906108d4565b61018a565b005b6100e460048036038101906100df91906108d4565b610225565b005b6100ee6102c0565b005b61010a6004803603810190610105919061094a565b61034c565b005b6101146103ed565b005b61011e610401565b005b61012861048d565b60405161013591906109c0565b60405180910390f35b6101466104b6565b005b610150610542565b005b61016c600480360381019061016791906109db565b6105ce565b005b61018860048036038101906101839190610a08565b610651565b005b6101926106e9565b600160009054906101000a900473ffffffffffffffffffffffffffffffffffffffff1673ffffffffffffffffffffffffffffffffffffffff166340a2a15983836040518363ffffffff1660e01b81526004016101ef929190610a94565b600060405180830381600087803b15801561020957600080fd5b505af115801561021d573d6000803e3d6000fd5b505050505050565b61022d6106e9565b600160009054906101000a900473ffffffffffffffffffffffffffffffffffffffff1673ffffffffffffffffffffffffffffffffffffffff16636e3378a283836040518363ffffffff1660e01b815260040161028a929190610a94565b600060405180830381600087803b1580156102a457600080fd5b505af11580156102b8573d6000803e3d6000fd5b505050505050565b6102c86106e9565b600260009054906101000a900473ffffffffffffffffffffffffffffffffffffffff1673ffffffffffffffffffffffffffffffffffffffff16632445d8cc6040518163ffffffff1660e01b8152600401600060405180830381600087803b15801561033257600080fd5b505af1158015610346573d6000803e3d6000fd5b50505050565b6103546106e9565b600360009054906101000a900473ffffffffffffffffffffffffffffffffffffffff1673ffffffffffffffffffffffffffffffffffffffff166311ac7e15858585856040518563ffffffff1660e01b81526004016103b59493929190610acc565b600060405180830381600087803b1580156103cf57600080fd5b505af11580156103e3573d6000803e3d6000fd5b5050505050505050565b6103f56106e9565b6103ff6000610767565b565b6104096106e9565b600260009054906101000a900473ffffffffffffffffffffffffffffffffffffffff1673ffffffffffffffffffffffffffffffffffffffff16630cf3c3e56040518163ffffffff1660e01b8152600401600060405180830381600087803b15801561047357600080fd5b505af1158015610487573d6000803e3d6000fd5b50505050565b60008060009054906101000a900473ffffffffffffffffffffffffffffffffffffffff16905090565b6104be6106e9565b600260009054906101000a900473ffffffffffffffffffffffffffffffffffffffff1673ffffffffffffffffffffffffffffffffffffffff1663a3f8f66c6040518163ffffffff1660e01b8152600401600060405180830381600087803b15801561052857600080fd5b505af115801561053c573d6000803e3d6000fd5b50505050565b61054a6106e9565b600260009054906101000a900473ffffffffffffffffffffffffffffffffffffffff1673ffffffffffffffffffffffffffffffffffffffff1663ab4bfb296040518163ffffffff1660e01b8152600401600060405180830381600087803b1580156105b457600080fd5b505af11580156105c8573d6000803e3d6000fd5b50505050565b6105d66106e9565b600073ffffffffffffffffffffffffffffffffffffffff168173ffffffffffffffffffffffffffffffffffffffff1603610645576040517f08c379a000000000000000000000000000000000000000000000000000000000815260040161063c90610b94565b60405180910390fd5b61064e81610767565b50565b6106596106e9565b600360009054906101000a900473ffffffffffffffffffffffffffffffffffffffff1673ffffffffffffffffffffffffffffffffffffffff16636d368de7826040518263ffffffff1660e01b81526004016106b49190610bb4565b600060405180830381600087803b1580156106ce57600080fd5b505af11580156106e2573d6000803e3d6000fd5b5050505050565b6106f161082b565b73ffffffffffffffffffffffffffffffffffffffff1661070f61048d565b73ffffffffffffffffffffffffffffffffffffffff1614610765576040517f08c379a000000000000000000000000000000000000000000000000000000000815260040161075c90610c1b565b60405180910390fd5b565b60008060009054906101000a900473ffffffffffffffffffffffffffffffffffffffff169050816000806101000a81548173ffffffffffffffffffffffffffffffffffffffff021916908373ffffffffffffffffffffffffffffffffffffffff1602179055508173ffffffffffffffffffffffffffffffffffffffff168173ffffffffffffffffffffffffffffffffffffffff167f8be0079c531659141344cd1fd0a4f28419497f9722a3daafe3b4186f6b6457e060405160405180910390a35050565b600033905090565b600080fd5b600073ffffffffffffffffffffffffffffffffffffffff82169050919050565b600061086382610838565b9050919050565b600061087582610858565b9050919050565b6108858161086a565b811461089057600080fd5b50565b6000813590506108a28161087c565b92915050565b6108b181610858565b81146108bc57600080fd5b50565b6000813590506108ce816108a8565b92915050565b600080604083850312156108eb576108ea610833565b5b60006108f985828601610893565b925050602061090a858286016108bf565b9150509250929050565b6000819050919050565b61092781610914565b811461093257600080fd5b50565b6000813590506109448161091e565b92915050565b6000806000806080858703121561096457610963610833565b5b600061097287828801610893565b945050602061098387828801610935565b935050604061099487828801610935565b92505060606109a587828801610935565b91505092959194509250565b6109ba81610858565b82525050565b60006020820190506109d560008301846109b1565b92915050565b6000602082840312156109f1576109f0610833565b5b60006109ff848285016108bf565b91505092915050565b600060208284031215610a1e57610a1d610833565b5b6000610a2c84828501610893565b91505092915050565b6000819050919050565b6000610a5a610a55610a5084610838565b610a35565b610838565b9050919050565b6000610a6c82610a3f565b9050919050565b6000610a7e82610a61565b9050919050565b610a8e81610a73565b82525050565b6000604082019050610aa96000830185610a85565b610ab660208301846109b1565b9392505050565b610ac681610914565b82525050565b6000608082019050610ae16000830187610a85565b610aee6020830186610abd565b610afb6040830185610abd565b610b086060830184610abd565b95945050505050565b600082825260208201905092915050565b7f4f776e61626c653a206e6577206f776e657220697320746865207a65726f206160008201527f6464726573730000000000000000000000000000000000000000000000000000602082015250565b6000610b7e602683610b11565b9150610b8982610b22565b604082019050919050565b60006020820190508181036000830152610bad81610b71565b9050919050565b6000602082019050610bc96000830184610a85565b92915050565b7f4f776e61626c653a2063616c6c6572206973206e6f7420746865206f776e6572600082015250565b6000610c05602083610b11565b9150610c1082610bcf565b602082019050919050565b60006020820190508181036000830152610c3481610bf8565b905091905056fea264697066735822122007a2d5d81f1740e20c3b14fb6c0c03b54be6c040c3c2887edee274c58933b98664736f6c63430008120033",
  "linkReferences": {},
  "deployedLinkReferences": {}
}