{
  "_format": "hh-sol-artifact-1",
  "contractName": "buySell",
  "sourceName": "contracts/buySell.sol",
  "abi": [
    {
      "inputs": [
        {
          "internalType": "uint256",
          "name": "_feePercent",
          "type": "uint256"
        },
        {
          "internalType": "address",
          "name": "_FAddr",
          "type": "address"
        },
        {
          "internalType": "address",
          "name": "_dev",
          "type": "address"
        },
        {
          "internalType": "address",
          "name": "_vAddr",
          "type": "address"
        }
      ],
      "stateMutability": "nonpayable",
      "type": "constructor"
    },
    {
      "inputs": [
        {
          "internalType": "address",
          "name": "_tokenX",
          "type": "address"
        },
        {
          "internalType": "uint256",
          "name": "_amount",
          "type": "uint256"
        }
      ],
      "name": "deposit",
      "outputs": [],
      "stateMutability": "nonpayable",
      "type": "function"
    },
    {
      "inputs": [],
      "name": "feePercent",
      "outputs": [
        {
          "internalType": "uint256",
          "name": "",
          "type": "uint256"
        }
      ],
      "stateMutability": "view",
      "type": "function"
    },
    {
      "inputs": [
        {
          "internalType": "address",
          "name": "_newdev",
          "type": "address"
        }
      ],
      "name": "setDev",
      "outputs": [],
      "stateMutability": "nonpayable",
      "type": "function"
    },
    {
      "inputs": [
        {
          "internalType": "address",
          "name": "",
          "type": "address"
        }
      ],
      "name": "tokens",
      "outputs": [
        {
          "internalType": "uint256",
          "name": "",
          "type": "uint256"
        }
      ],
      "stateMutability": "view",
      "type": "function"
    },
    {
      "inputs": [
        {
          "internalType": "address",
          "name": "_tokenX",
          "type": "address"
        },
        {
          "internalType": "uint256",
          "name": "_amount",
          "type": "uint256"
        }
      ],
      "name": "withdraw",
      "outputs": [],
      "stateMutability": "nonpayable",
      "type": "function"
    }
  ],
  "bytecode": "0x60806040523480156200001157600080fd5b5060405162000c8538038062000c858339818101604052810190620000379190620001af565b826000806101000a81548173ffffffffffffffffffffffffffffffffffffffff021916908373ffffffffffffffffffffffffffffffffffffffff1602179055508360038190555081600160006101000a81548173ffffffffffffffffffffffffffffffffffffffff021916908373ffffffffffffffffffffffffffffffffffffffff16021790555080600260006101000a81548173ffffffffffffffffffffffffffffffffffffffff021916908373ffffffffffffffffffffffffffffffffffffffff1602179055505050505062000221565b600080fd5b6000819050919050565b62000124816200010f565b81146200013057600080fd5b50565b600081519050620001448162000119565b92915050565b600073ffffffffffffffffffffffffffffffffffffffff82169050919050565b600062000177826200014a565b9050919050565b62000189816200016a565b81146200019557600080fd5b50565b600081519050620001a9816200017e565b92915050565b60008060008060808587031215620001cc57620001cb6200010a565b5b6000620001dc8782880162000133565b9450506020620001ef8782880162000198565b9350506040620002028782880162000198565b9250506060620002158782880162000198565b91505092959194509250565b610a5480620002316000396000f3fe608060405234801561001057600080fd5b50600436106100575760003560e01c806347e7ef241461005c5780637fd6f15c14610078578063d477f05f14610096578063e4860339146100b2578063f3fef3a3146100e2575b600080fd5b61007660048036038101906100719190610648565b6100fe565b005b6100806102e5565b60405161008d9190610697565b60405180910390f35b6100b060048036038101906100ab91906106b2565b6102eb565b005b6100cc60048036038101906100c791906106b2565b6103bf565b6040516100d99190610697565b60405180910390f35b6100fc60048036038101906100f79190610648565b6103d7565b005b808273ffffffffffffffffffffffffffffffffffffffff166370a08231336040518263ffffffff1660e01b815260040161013891906106ee565b602060405180830381865afa158015610155573d6000803e3d6000fd5b505050506040513d601f19601f82011682018060405250810190610179919061071e565b10156101ba576040517f08c379a00000000000000000000000000000000000000000000000000000000081526004016101b1906107a8565b60405180910390fd5b6000600260009054906101000a900473ffffffffffffffffffffffffffffffffffffffff1690508073ffffffffffffffffffffffffffffffffffffffff166309cb16db838433876040518563ffffffff1660e01b815260040161022094939291906107c8565b600060405180830381600087803b15801561023a57600080fd5b505af115801561024e573d6000803e3d6000fd5b5050505081600460003373ffffffffffffffffffffffffffffffffffffffff1673ffffffffffffffffffffffffffffffffffffffff1681526020019081526020016000205461029d919061083c565b600460003373ffffffffffffffffffffffffffffffffffffffff1673ffffffffffffffffffffffffffffffffffffffff16815260200190815260200160002081905550505050565b60035481565b600160009054906101000a900473ffffffffffffffffffffffffffffffffffffffff1673ffffffffffffffffffffffffffffffffffffffff163373ffffffffffffffffffffffffffffffffffffffff161461037b576040517f08c379a0000000000000000000000000000000000000000000000000000000008152600401610372906108bc565b60405180910390fd5b80600160006101000a81548173ffffffffffffffffffffffffffffffffffffffff021916908373ffffffffffffffffffffffffffffffffffffffff16021790555050565b60046020528060005260406000206000915090505481565b80600460003373ffffffffffffffffffffffffffffffffffffffff1673ffffffffffffffffffffffffffffffffffffffff168152602001908152602001600020541015610459576040517f08c379a000000000000000000000000000000000000000000000000000000000815260040161045090610928565b60405180910390fd5b80600460003373ffffffffffffffffffffffffffffffffffffffff1673ffffffffffffffffffffffffffffffffffffffff168152602001908152602001600020546104a49190610948565b600460003373ffffffffffffffffffffffffffffffffffffffff1673ffffffffffffffffffffffffffffffffffffffff168152602001908152602001600020819055506000606460035460646104fa9190610948565b83610505919061097c565b61050f91906109ed565b90506000600260009054906101000a900473ffffffffffffffffffffffffffffffffffffffff1690508073ffffffffffffffffffffffffffffffffffffffff166358db874d848433886040518563ffffffff1660e01b815260040161057794939291906107c8565b600060405180830381600087803b15801561059157600080fd5b505af11580156105a5573d6000803e3d6000fd5b5050505050505050565b600080fd5b600073ffffffffffffffffffffffffffffffffffffffff82169050919050565b60006105df826105b4565b9050919050565b6105ef816105d4565b81146105fa57600080fd5b50565b60008135905061060c816105e6565b92915050565b6000819050919050565b61062581610612565b811461063057600080fd5b50565b6000813590506106428161061c565b92915050565b6000806040838503121561065f5761065e6105af565b5b600061066d858286016105fd565b925050602061067e85828601610633565b9150509250929050565b61069181610612565b82525050565b60006020820190506106ac6000830184610688565b92915050565b6000602082840312156106c8576106c76105af565b5b60006106d6848285016105fd565b91505092915050565b6106e8816105d4565b82525050565b600060208201905061070360008301846106df565b92915050565b6000815190506107188161061c565b92915050565b600060208284031215610734576107336105af565b5b600061074284828501610709565b91505092915050565b600082825260208201905092915050565b7f496e73756666696369656e742066756e64000000000000000000000000000000600082015250565b600061079260118361074b565b915061079d8261075c565b602082019050919050565b600060208201905081810360008301526107c181610785565b9050919050565b60006080820190506107dd6000830187610688565b6107ea6020830186610688565b6107f760408301856106df565b61080460608301846106df565b95945050505050565b7f4e487b7100000000000000000000000000000000000000000000000000000000600052601160045260246000fd5b600061084782610612565b915061085283610612565b925082820190508082111561086a5761086961080d565b5b92915050565b7f5065726d697373696f6e2064656e696564000000000000000000000000000000600082015250565b60006108a660118361074b565b91506108b182610870565b602082019050919050565b600060208201905081810360008301526108d581610899565b9050919050565b7f496e73756666696369656e7420746f6b656e4600000000000000000000000000600082015250565b600061091260138361074b565b915061091d826108dc565b602082019050919050565b6000602082019050818103600083015261094181610905565b9050919050565b600061095382610612565b915061095e83610612565b92508282039050818111156109765761097561080d565b5b92915050565b600061098782610612565b915061099283610612565b92508282026109a081610612565b915082820484148315176109b7576109b661080d565b5b5092915050565b7f4e487b7100000000000000000000000000000000000000000000000000000000600052601260045260246000fd5b60006109f882610612565b9150610a0383610612565b925082610a1357610a126109be565b5b82820490509291505056fea2646970667358221220b5dc9228fcfe2aa51e63a8bb4b8ff964d3b85fec99c9aa6eaf23a899f0ec565164736f6c63430008120033",
  "linkReferences": {},
  "deployedLinkReferences": {}
}