{
  "_format": "hh-sol-artifact-1",
  "contractName": "Swap",
  "sourceName": "contracts/pools.sol",
  "abi": [
    {
      "inputs": [
        {
          "internalType": "address",
          "name": "_dev",
          "type": "address"
        },
        {
          "internalType": "address",
          "name": "_vAddr",
          "type": "address"
        }
      ],
      "stateMutability": "nonpayable",
      "type": "constructor"
    },
    {
      "inputs": [
        {
          "internalType": "uint256",
          "name": "amountIn",
          "type": "uint256"
        },
        {
          "internalType": "address[]",
          "name": "path",
          "type": "address[]"
        }
      ],
      "name": "calculateNetAmountOut",
      "outputs": [
        {
          "internalType": "uint256",
          "name": "",
          "type": "uint256"
        }
      ],
      "stateMutability": "view",
      "type": "function"
    },
    {
      "inputs": [],
      "name": "dev",
      "outputs": [
        {
          "internalType": "address",
          "name": "",
          "type": "address"
        }
      ],
      "stateMutability": "view",
      "type": "function"
    },
    {
      "inputs": [
        {
          "internalType": "address",
          "name": "",
          "type": "address"
        },
        {
          "internalType": "address",
          "name": "",
          "type": "address"
        }
      ],
      "name": "findAtoB",
      "outputs": [
        {
          "internalType": "uint256",
          "name": "",
          "type": "uint256"
        }
      ],
      "stateMutability": "view",
      "type": "function"
    },
    {
      "inputs": [
        {
          "internalType": "address",
          "name": "_tokenA",
          "type": "address"
        },
        {
          "internalType": "address",
          "name": "_tokenB",
          "type": "address"
        }
      ],
      "name": "getLpIndex",
      "outputs": [
        {
          "internalType": "uint256",
          "name": "",
          "type": "uint256"
        }
      ],
      "stateMutability": "view",
      "type": "function"
    },
    {
      "inputs": [
        {
          "internalType": "address",
          "name": "_tokenA",
          "type": "address"
        },
        {
          "internalType": "address",
          "name": "_tokenB",
          "type": "address"
        }
      ],
      "name": "getPrice",
      "outputs": [
        {
          "internalType": "uint256",
          "name": "",
          "type": "uint256"
        }
      ],
      "stateMutability": "view",
      "type": "function"
    },
    {
      "inputs": [
        {
          "internalType": "address",
          "name": "_tokenA",
          "type": "address"
        },
        {
          "internalType": "address",
          "name": "_tokenB",
          "type": "address"
        },
        {
          "internalType": "uint256",
          "name": "_tokenA_amount",
          "type": "uint256"
        },
        {
          "internalType": "uint256",
          "name": "_tokenB_amount",
          "type": "uint256"
        },
        {
          "internalType": "uint256",
          "name": "_feeRate",
          "type": "uint256"
        }
      ],
      "name": "initNewPool",
      "outputs": [],
      "stateMutability": "nonpayable",
      "type": "function"
    },
    {
      "inputs": [
        {
          "internalType": "uint256",
          "name": "",
          "type": "uint256"
        }
      ],
      "name": "pools",
      "outputs": [
        {
          "internalType": "address",
          "name": "tokenA",
          "type": "address"
        },
        {
          "internalType": "address",
          "name": "tokenB",
          "type": "address"
        },
        {
          "internalType": "uint256",
          "name": "tokenA_amount",
          "type": "uint256"
        },
        {
          "internalType": "uint256",
          "name": "tokenB_amount",
          "type": "uint256"
        },
        {
          "internalType": "uint256",
          "name": "feeRate",
          "type": "uint256"
        }
      ],
      "stateMutability": "view",
      "type": "function"
    },
    {
      "inputs": [
        {
          "internalType": "address",
          "name": "_newdev",
          "type": "address"
        }
      ],
      "name": "setDev",
      "outputs": [],
      "stateMutability": "nonpayable",
      "type": "function"
    },
    {
      "inputs": [
        {
          "internalType": "address",
          "name": "_tokenFAddr",
          "type": "address"
        }
      ],
      "name": "setTokenFAddr",
      "outputs": [],
      "stateMutability": "nonpayable",
      "type": "function"
    },
    {
      "inputs": [
        {
          "internalType": "uint256",
          "name": "amountIn",
          "type": "uint256"
        },
        {
          "internalType": "address[]",
          "name": "path",
          "type": "address[]"
        },
        {
          "internalType": "address",
          "name": "to",
          "type": "address"
        }
      ],
      "name": "swap",
      "outputs": [],
      "stateMutability": "payable",
      "type": "function"
    }
  ],
  "bytecode": "0x60806040523480156200001157600080fd5b50604051620021bd380380620021bd83398181016040528101906200003791906200012a565b806000806101000a81548173ffffffffffffffffffffffffffffffffffffffff021916908373ffffffffffffffffffffffffffffffffffffffff16021790555081600460006101000a81548173ffffffffffffffffffffffffffffffffffffffff021916908373ffffffffffffffffffffffffffffffffffffffff160217905550505062000171565b600080fd5b600073ffffffffffffffffffffffffffffffffffffffff82169050919050565b6000620000f282620000c5565b9050919050565b6200010481620000e5565b81146200011057600080fd5b50565b6000815190506200012481620000f9565b92915050565b60008060408385031215620001445762000143620000c0565b5b6000620001548582860162000113565b9250506020620001678582860162000113565b9150509250929050565b61203c80620001816000396000f3fe6080604052600436106100915760003560e01c8063ac4afa3811610059578063ac4afa3814610180578063b6d91798146101c1578063d477f05f146101fe578063d477f13514610227578063e9ba1d961461025057610091565b806372bfe31b1461009657806391cca3db146100d3578063a27102a1146100fe578063a40103d414610127578063ac41865a14610143575b600080fd5b3480156100a257600080fd5b506100bd60048036038101906100b891906116e1565b61028d565b6040516100ca919061173a565b60405180910390f35b3480156100df57600080fd5b506100e86102b2565b6040516100f59190611764565b60405180910390f35b34801561010a57600080fd5b506101256004803603810190610120919061177f565b6102d8565b005b610141600480360381019061013c919061183d565b6103ac565b005b34801561014f57600080fd5b5061016a600480360381019061016591906116e1565b6109aa565b604051610177919061173a565b60405180910390f35b34801561018c57600080fd5b506101a760048036038101906101a291906118b1565b610b34565b6040516101b89594939291906118de565b60405180910390f35b3480156101cd57600080fd5b506101e860048036038101906101e391906116e1565b610bba565b6040516101f5919061173a565b60405180910390f35b34801561020a57600080fd5b506102256004803603810190610220919061177f565b610ce9565b005b34801561023357600080fd5b5061024e60048036038101906102499190611931565b610dbd565b005b34801561025c57600080fd5b50610277600480360381019061027291906119ac565b6112e9565b604051610284919061173a565b60405180910390f35b6002602052816000526040600020602052806000526040600020600091509150505481565b600460009054906101000a900473ffffffffffffffffffffffffffffffffffffffff1681565b600460009054906101000a900473ffffffffffffffffffffffffffffffffffffffff1673ffffffffffffffffffffffffffffffffffffffff163373ffffffffffffffffffffffffffffffffffffffff1614610368576040517f08c379a000000000000000000000000000000000000000000000000000000000815260040161035f90611a69565b60405180910390fd5b80600160006101000a81548173ffffffffffffffffffffffffffffffffffffffff021916908373ffffffffffffffffffffffffffffffffffffffff16021790555050565b60008060028585905010156103f6576040517f08c379a00000000000000000000000000000000000000000000000000000000081526004016103ed90611ad5565b60405180910390fd5b600160009054906101000a900473ffffffffffffffffffffffffffffffffffffffff1673ffffffffffffffffffffffffffffffffffffffff168585600081811061044357610442611af5565b5b9050602002016020810190610458919061177f565b73ffffffffffffffffffffffffffffffffffffffff161461053457600160009054906101000a900473ffffffffffffffffffffffffffffffffffffffff1673ffffffffffffffffffffffffffffffffffffffff16858560018181106104c0576104bf611af5565b5b90506020020160208101906104d5919061177f565b73ffffffffffffffffffffffffffffffffffffffff161461052b576040517f08c379a000000000000000000000000000000000000000000000000000000000815260040161052290611b70565b60405180910390fd5b600191506105ed565b600160009054906101000a900473ffffffffffffffffffffffffffffffffffffffff1673ffffffffffffffffffffffffffffffffffffffff168585600181811061058157610580611af5565b5b9050602002016020810190610596919061177f565b73ffffffffffffffffffffffffffffffffffffffff16036105ec576040517f08c379a00000000000000000000000000000000000000000000000000000000081526004016105e390611bdc565b60405180910390fd5b5b858585600081811061060257610601611af5565b5b9050602002016020810190610617919061177f565b73ffffffffffffffffffffffffffffffffffffffff1663dd62ed3e3360008054906101000a900473ffffffffffffffffffffffffffffffffffffffff166040518363ffffffff1660e01b8152600401610671929190611bfc565b602060405180830381865afa15801561068e573d6000803e3d6000fd5b505050506040513d601f19601f820116820180604052508101906106b29190611c3a565b10156106f3576040517f08c379a00000000000000000000000000000000000000000000000000000000081526004016106ea90611cb3565b60405180910390fd5b60008060009054906101000a900473ffffffffffffffffffffffffffffffffffffffff16905060006107758787600081811061073257610731611af5565b5b9050602002016020810190610747919061177f565b8888600181811061075b5761075a611af5565b5b9050602002016020810190610770919061177f565b610bba565b036107b5576040517f08c379a00000000000000000000000000000000000000000000000000000000081526004016107ac90611d1f565b60405180910390fd5b600060036001610815898960008181106107d2576107d1611af5565b5b90506020020160208101906107e7919061177f565b8a8a60018181106107fb576107fa611af5565b5b9050602002016020810190610810919061177f565b610bba565b61081f9190611d6e565b815481106108305761082f611af5565b5b9060005260206000209060050201905060011515841515036108f857610856818961153f565b92508173ffffffffffffffffffffffffffffffffffffffff1663549c796e868989600081811061088957610888611af5565b5b905060200201602081019061089e919061177f565b8b87896040518663ffffffff1660e01b81526004016108c1959493929190611dbd565b600060405180830381600087803b1580156108db57600080fd5b505af11580156108ef573d6000803e3d6000fd5b505050506109a0565b61090281896115dc565b92508173ffffffffffffffffffffffffffffffffffffffff1663549c796e868989600081811061093557610934611af5565b5b905060200201602081019061094a919061177f565b868c896040518663ffffffff1660e01b815260040161096d959493929190611dbd565b600060405180830381600087803b15801561098757600080fd5b505af115801561099b573d6000803e3d6000fd5b505050505b5050505050505050565b6000806109b78484610bba565b9050600081036109fc576040517f08c379a00000000000000000000000000000000000000000000000000000000081526004016109f390611d1f565b60405180910390fd5b60006003600183610a0d9190611d6e565b81548110610a1e57610a1d611af5565b5b90600052602060002090600502016040518060a00160405290816000820160009054906101000a900473ffffffffffffffffffffffffffffffffffffffff1673ffffffffffffffffffffffffffffffffffffffff1673ffffffffffffffffffffffffffffffffffffffff1681526020016001820160009054906101000a900473ffffffffffffffffffffffffffffffffffffffff1673ffffffffffffffffffffffffffffffffffffffff1673ffffffffffffffffffffffffffffffffffffffff168152602001600282015481526020016003820154815260200160048201548152505090508060400151670de0b6b3a76400008260600151610b209190611e10565b610b2a9190611e81565b9250505092915050565b60038181548110610b4457600080fd5b90600052602060002090600502016000915090508060000160009054906101000a900473ffffffffffffffffffffffffffffffffffffffff16908060010160009054906101000a900473ffffffffffffffffffffffffffffffffffffffff16908060020154908060030154908060040154905085565b600080600260008573ffffffffffffffffffffffffffffffffffffffff1673ffffffffffffffffffffffffffffffffffffffff16815260200190815260200160002060008473ffffffffffffffffffffffffffffffffffffffff1673ffffffffffffffffffffffffffffffffffffffff1681526020019081526020016000205490506000600260008573ffffffffffffffffffffffffffffffffffffffff1673ffffffffffffffffffffffffffffffffffffffff16815260200190815260200160002060008673ffffffffffffffffffffffffffffffffffffffff1673ffffffffffffffffffffffffffffffffffffffff168152602001908152602001600020549050600082148015610ccd5750600081145b15610cdd57600092505050610ce3565b81925050505b92915050565b600460009054906101000a900473ffffffffffffffffffffffffffffffffffffffff1673ffffffffffffffffffffffffffffffffffffffff163373ffffffffffffffffffffffffffffffffffffffff1614610d79576040517f08c379a0000000000000000000000000000000000000000000000000000000008152600401610d7090611efe565b60405180910390fd5b80600460006101000a81548173ffffffffffffffffffffffffffffffffffffffff021916908373ffffffffffffffffffffffffffffffffffffffff16021790555050565b600460009054906101000a900473ffffffffffffffffffffffffffffffffffffffff1673ffffffffffffffffffffffffffffffffffffffff163373ffffffffffffffffffffffffffffffffffffffff1614610e4d576040517f08c379a0000000000000000000000000000000000000000000000000000000008152600401610e4490611a69565b60405180910390fd5b60006040518060a001604052808773ffffffffffffffffffffffffffffffffffffffff1681526020018673ffffffffffffffffffffffffffffffffffffffff1681526020018581526020018481526020018381525090506000610eb08787610bba565b905060006003805490509050600081036110a7576001600260008a73ffffffffffffffffffffffffffffffffffffffff1673ffffffffffffffffffffffffffffffffffffffff16815260200190815260200160002060008973ffffffffffffffffffffffffffffffffffffffff1673ffffffffffffffffffffffffffffffffffffffff168152602001908152602001600020819055506001600260008973ffffffffffffffffffffffffffffffffffffffff1673ffffffffffffffffffffffffffffffffffffffff16815260200190815260200160002060008a73ffffffffffffffffffffffffffffffffffffffff1673ffffffffffffffffffffffffffffffffffffffff16815260200190815260200160002081905550600383908060018154018082558091505060019003906000526020600020906005020160009091909190915060008201518160000160006101000a81548173ffffffffffffffffffffffffffffffffffffffff021916908373ffffffffffffffffffffffffffffffffffffffff16021790555060208201518160010160006101000a81548173ffffffffffffffffffffffffffffffffffffffff021916908373ffffffffffffffffffffffffffffffffffffffff16021790555060408201518160020155606082015181600301556080820151816004015550506112df565b600082146110ea576040517f08c379a00000000000000000000000000000000000000000000000000000000081526004016110e190611f6a565b60405180910390fd5b6001816110f79190611f8a565b600260008a73ffffffffffffffffffffffffffffffffffffffff1673ffffffffffffffffffffffffffffffffffffffff16815260200190815260200160002060008973ffffffffffffffffffffffffffffffffffffffff1673ffffffffffffffffffffffffffffffffffffffff168152602001908152602001600020819055506001816111849190611f8a565b600260008973ffffffffffffffffffffffffffffffffffffffff1673ffffffffffffffffffffffffffffffffffffffff16815260200190815260200160002060008a73ffffffffffffffffffffffffffffffffffffffff1673ffffffffffffffffffffffffffffffffffffffff16815260200190815260200160002081905550600383908060018154018082558091505060019003906000526020600020906005020160009091909190915060008201518160000160006101000a81548173ffffffffffffffffffffffffffffffffffffffff021916908373ffffffffffffffffffffffffffffffffffffffff16021790555060208201518160010160006101000a81548173ffffffffffffffffffffffffffffffffffffffff021916908373ffffffffffffffffffffffffffffffffffffffff16021790555060408201518160020155606082015181600301556080820151816004015550505b5050505050505050565b6000808383905090506002811015611336576040517f08c379a000000000000000000000000000000000000000000000000000000000815260040161132d90611ad5565b60405180910390fd5b60008484600081811061134c5761134b611af5565b5b9050602002016020810190611361919061177f565b905060005b6001836113739190611d6e565b811015611532576000868660018461138b9190611f8a565b81811061139b5761139a611af5565b5b90506020020160208101906113b0919061177f565b905060006114188888858181106113ca576113c9611af5565b5b90506020020160208101906113df919061177f565b89896001876113ee9190611f8a565b8181106113fe576113fd611af5565b5b9050602002016020810190611413919061177f565b610bba565b90506000810361145d576040517f08c379a000000000000000000000000000000000000000000000000000000000815260040161145490611d1f565b60405180910390fd5b6000600360018361146e9190611d6e565b8154811061147f5761147e611af5565b5b906000526020600020906005020190506000816003015482600201546114a59190611e10565b905060008b83600201546114b99190611f8a565b9050600081836114c99190611e81565b905060008185600301546114dd9190611d6e565b905060006127108660040154836114f49190611e10565b6114fe9190611e81565b90506000818361150e9190611d6e565b9050809f50889a50505050505050505050808061152a90611fbe565b915050611366565b5085925050509392505050565b600080836003015484600201546115569190611e10565b9050600083856002015461156a9190611f8a565b90506000818361157a9190611e81565b9050600081876003015461158e9190611d6e565b905060006127108860040154836115a59190611e10565b6115af9190611e81565b905080826115bd9190611d6e565b9550838860020181905550828860030181905550505050505092915050565b600080836003015484600201546115f39190611e10565b905060008385600301546116079190611f8a565b9050600081836116179190611e81565b9050600081876002015461162b9190611d6e565b905060006127108860040154836116429190611e10565b61164c9190611e81565b9050808261165a9190611d6e565b9550828860020181905550838860030181905550505050505092915050565b600080fd5b600080fd5b600073ffffffffffffffffffffffffffffffffffffffff82169050919050565b60006116ae82611683565b9050919050565b6116be816116a3565b81146116c957600080fd5b50565b6000813590506116db816116b5565b92915050565b600080604083850312156116f8576116f7611679565b5b6000611706858286016116cc565b9250506020611717858286016116cc565b9150509250929050565b6000819050919050565b61173481611721565b82525050565b600060208201905061174f600083018461172b565b92915050565b61175e816116a3565b82525050565b60006020820190506117796000830184611755565b92915050565b60006020828403121561179557611794611679565b5b60006117a3848285016116cc565b91505092915050565b6117b581611721565b81146117c057600080fd5b50565b6000813590506117d2816117ac565b92915050565b600080fd5b600080fd5b600080fd5b60008083601f8401126117fd576117fc6117d8565b5b8235905067ffffffffffffffff81111561181a576118196117dd565b5b602083019150836020820283011115611836576118356117e2565b5b9250929050565b6000806000806060858703121561185757611856611679565b5b6000611865878288016117c3565b945050602085013567ffffffffffffffff8111156118865761188561167e565b5b611892878288016117e7565b935093505060406118a5878288016116cc565b91505092959194509250565b6000602082840312156118c7576118c6611679565b5b60006118d5848285016117c3565b91505092915050565b600060a0820190506118f36000830188611755565b6119006020830187611755565b61190d604083018661172b565b61191a606083018561172b565b611927608083018461172b565b9695505050505050565b600080600080600060a0868803121561194d5761194c611679565b5b600061195b888289016116cc565b955050602061196c888289016116cc565b945050604061197d888289016117c3565b935050606061198e888289016117c3565b925050608061199f888289016117c3565b9150509295509295909350565b6000806000604084860312156119c5576119c4611679565b5b60006119d3868287016117c3565b935050602084013567ffffffffffffffff8111156119f4576119f361167e565b5b611a00868287016117e7565b92509250509250925092565b600082825260208201905092915050565b7f5065726d697373696f6e2064656e696564000000000000000000000000000000600082015250565b6000611a53601183611a0c565b9150611a5e82611a1d565b602082019050919050565b60006020820190508181036000830152611a8281611a46565b9050919050565b7f496e76616c696420706174680000000000000000000000000000000000000000600082015250565b6000611abf600c83611a0c565b9150611aca82611a89565b602082019050919050565b60006020820190508181036000830152611aee81611ab2565b9050919050565b7f4e487b7100000000000000000000000000000000000000000000000000000000600052603260045260246000fd5b7f4e6f20746f6b656e460000000000000000000000000000000000000000000000600082015250565b6000611b5a600983611a0c565b9150611b6582611b24565b602082019050919050565b60006020820190508181036000830152611b8981611b4d565b9050919050565b7f426f746820746f6b656e46000000000000000000000000000000000000000000600082015250565b6000611bc6600b83611a0c565b9150611bd182611b90565b602082019050919050565b60006020820190508181036000830152611bf581611bb9565b9050919050565b6000604082019050611c116000830185611755565b611c1e6020830184611755565b9392505050565b600081519050611c34816117ac565b92915050565b600060208284031215611c5057611c4f611679565b5b6000611c5e84828501611c25565b91505092915050565b7f4e6f7420656e6f75676820616c6c6f77616e6365000000000000000000000000600082015250565b6000611c9d601483611a0c565b9150611ca882611c67565b602082019050919050565b60006020820190508181036000830152611ccc81611c90565b9050919050565b7f506f6f6c20646f65736e27742065786973740000000000000000000000000000600082015250565b6000611d09601283611a0c565b9150611d1482611cd3565b602082019050919050565b60006020820190508181036000830152611d3881611cfc565b9050919050565b7f4e487b7100000000000000000000000000000000000000000000000000000000600052601160045260246000fd5b6000611d7982611721565b9150611d8483611721565b9250828203905081811115611d9c57611d9b611d3f565b5b92915050565b60008115159050919050565b611db781611da2565b82525050565b600060a082019050611dd26000830188611755565b611ddf6020830187611755565b611dec604083018661172b565b611df9606083018561172b565b611e066080830184611dae565b9695505050505050565b6000611e1b82611721565b9150611e2683611721565b9250828202611e3481611721565b91508282048414831517611e4b57611e4a611d3f565b5b5092915050565b7f4e487b7100000000000000000000000000000000000000000000000000000000600052601260045260246000fd5b6000611e8c82611721565b9150611e9783611721565b925082611ea757611ea6611e52565b5b828204905092915050565b7f4e6f742064657600000000000000000000000000000000000000000000000000600082015250565b6000611ee8600783611a0c565b9150611ef382611eb2565b602082019050919050565b60006020820190508181036000830152611f1781611edb565b9050919050565b7f4c7020686173206265656e206578697374000000000000000000000000000000600082015250565b6000611f54601183611a0c565b9150611f5f82611f1e565b602082019050919050565b60006020820190508181036000830152611f8381611f47565b9050919050565b6000611f9582611721565b9150611fa083611721565b9250828201905080821115611fb857611fb7611d3f565b5b92915050565b6000611fc982611721565b91507fffffffffffffffffffffffffffffffffffffffffffffffffffffffffffffffff8203611ffb57611ffa611d3f565b5b60018201905091905056fea26469706673582212203e866e332975d0b3cb3c5fdbda1b192cf5d7d3ce8d74aafa07f8345fdd47ee4b64736f6c63430008120033",
  "linkReferences": {},
  "deployedLinkReferences": {}
}