{
  "_format": "hh-sol-artifact-1",
  "contractName": "Purchase",
  "sourceName": "contracts/core/Purchase.sol",
  "abi": [
    {
      "inputs": [
        {
          "internalType": "contract IVault",
          "name": "_vault",
          "type": "address"
        }
      ],
      "stateMutability": "nonpayable",
      "type": "constructor"
    },
    {
      "inputs": [
        {
          "internalType": "contract IMintable",
          "name": "want_token",
          "type": "address"
        },
        {
          "internalType": "uint256",
          "name": "_amount",
          "type": "uint256"
        }
      ],
      "name": "purchaseByF",
      "outputs": [],
      "stateMutability": "nonpayable",
      "type": "function"
    },
    {
      "inputs": [
        {
          "internalType": "contract IMintable",
          "name": "want_token",
          "type": "address"
        },
        {
          "internalType": "contract IERC20",
          "name": "use_token",
          "type": "address"
        },
        {
          "internalType": "uint256",
          "name": "_amount",
          "type": "uint256"
        }
      ],
      "name": "purchaseByToken",
      "outputs": [],
      "stateMutability": "nonpayable",
      "type": "function"
    }
  ],
  "bytecode": "0x608060405234801561001057600080fd5b5060405161066a38038061066a833981810160405281019061003291906100ed565b806000806101000a81548173ffffffffffffffffffffffffffffffffffffffff021916908373ffffffffffffffffffffffffffffffffffffffff1602179055505061011a565b600080fd5b600073ffffffffffffffffffffffffffffffffffffffff82169050919050565b60006100a88261007d565b9050919050565b60006100ba8261009d565b9050919050565b6100ca816100af565b81146100d557600080fd5b50565b6000815190506100e7816100c1565b92915050565b60006020828403121561010357610102610078565b5b6000610111848285016100d8565b91505092915050565b610541806101296000396000f3fe608060405234801561001057600080fd5b50600436106100365760003560e01c80632f4d385a1461003b578063ec5ccc6b14610057575b600080fd5b6100556004803603810190610050919061039b565b610073565b005b610071600480360381019061006c91906103ee565b610194565b005b8273ffffffffffffffffffffffffffffffffffffffff166340c10f1960008054906101000a900473ffffffffffffffffffffffffffffffffffffffff16836040518363ffffffff1660e01b81526004016100ce92919061044c565b600060405180830381600087803b1580156100e857600080fd5b505af11580156100fc573d6000803e3d6000fd5b5050505060008054906101000a900473ffffffffffffffffffffffffffffffffffffffff1673ffffffffffffffffffffffffffffffffffffffff1663f5537ede8385846040518463ffffffff1660e01b815260040161015d939291906104d4565b600060405180830381600087803b15801561017757600080fd5b505af115801561018b573d6000803e3d6000fd5b50505050505050565b8173ffffffffffffffffffffffffffffffffffffffff166340c10f1960008054906101000a900473ffffffffffffffffffffffffffffffffffffffff16836040518363ffffffff1660e01b81526004016101ef92919061044c565b600060405180830381600087803b15801561020957600080fd5b505af115801561021d573d6000803e3d6000fd5b5050505060008054906101000a900473ffffffffffffffffffffffffffffffffffffffff1673ffffffffffffffffffffffffffffffffffffffff1663d1d21f1783836040518363ffffffff1660e01b815260040161027c92919061044c565b600060405180830381600087803b15801561029657600080fd5b505af11580156102aa573d6000803e3d6000fd5b505050505050565b600080fd5b600073ffffffffffffffffffffffffffffffffffffffff82169050919050565b60006102e2826102b7565b9050919050565b60006102f4826102d7565b9050919050565b610304816102e9565b811461030f57600080fd5b50565b600081359050610321816102fb565b92915050565b6000610332826102d7565b9050919050565b61034281610327565b811461034d57600080fd5b50565b60008135905061035f81610339565b92915050565b6000819050919050565b61037881610365565b811461038357600080fd5b50565b6000813590506103958161036f565b92915050565b6000806000606084860312156103b4576103b36102b2565b5b60006103c286828701610312565b93505060206103d386828701610350565b92505060406103e486828701610386565b9150509250925092565b60008060408385031215610405576104046102b2565b5b600061041385828601610312565b925050602061042485828601610386565b9150509250929050565b610437816102d7565b82525050565b61044681610365565b82525050565b6000604082019050610461600083018561042e565b61046e602083018461043d565b9392505050565b6000819050919050565b600061049a610495610490846102b7565b610475565b6102b7565b9050919050565b60006104ac8261047f565b9050919050565b60006104be826104a1565b9050919050565b6104ce816104b3565b82525050565b60006060820190506104e960008301866104c5565b6104f6602083018561042e565b610503604083018461043d565b94935050505056fea26469706673582212200798eb130d6bb4506cf5e72b8618cdb880053350e577b0bc653363b4d0d5819c64736f6c63430008120033",
  "linkReferences": {},
  "deployedLinkReferences": {}
}