{
  "_format": "hh-sol-artifact-1",
  "contractName": "Pools",
  "sourceName": "contracts/core/Pools.sol",
  "abi": [
    {
      "inputs": [
        {
          "internalType": "contract IVault",
          "name": "_vault",
          "type": "address"
        },
        {
          "internalType": "contract IERC20",
          "name": "_f",
          "type": "address"
        }
      ],
      "stateMutability": "nonpayable",
      "type": "constructor"
    },
    {
      "anonymous": false,
      "inputs": [
        {
          "indexed": true,
          "internalType": "address",
          "name": "previousOwner",
          "type": "address"
        },
        {
          "indexed": true,
          "internalType": "address",
          "name": "newOwner",
          "type": "address"
        }
      ],
      "name": "OwnershipTransferred",
      "type": "event"
    },
    {
      "inputs": [
        {
          "internalType": "contract IERC20",
          "name": "token",
          "type": "address"
        },
        {
          "internalType": "uint256",
          "name": "_amount",
          "type": "uint256"
        },
        {
          "internalType": "uint256",
          "name": "_f_amount",
          "type": "uint256"
        },
        {
          "internalType": "uint256",
          "name": "_feeRate",
          "type": "uint256"
        }
      ],
      "name": "createLiquidity",
      "outputs": [],
      "stateMutability": "nonpayable",
      "type": "function"
    },
    {
      "inputs": [
        {
          "internalType": "contract IERC20",
          "name": "token",
          "type": "address"
        }
      ],
      "name": "destroyLiquidity",
      "outputs": [],
      "stateMutability": "nonpayable",
      "type": "function"
    },
    {
      "inputs": [],
      "name": "f",
      "outputs": [
        {
          "internalType": "contract IERC20",
          "name": "",
          "type": "address"
        }
      ],
      "stateMutability": "view",
      "type": "function"
    },
    {
      "inputs": [
        {
          "internalType": "uint256",
          "name": "",
          "type": "uint256"
        }
      ],
      "name": "getPool",
      "outputs": [
        {
          "internalType": "contract IERC20",
          "name": "token",
          "type": "address"
        },
        {
          "internalType": "contract IERC20",
          "name": "f",
          "type": "address"
        },
        {
          "internalType": "uint256",
          "name": "token_amount",
          "type": "uint256"
        },
        {
          "internalType": "uint256",
          "name": "f_amount",
          "type": "uint256"
        },
        {
          "internalType": "uint256",
          "name": "feeRate",
          "type": "uint256"
        }
      ],
      "stateMutability": "view",
      "type": "function"
    },
    {
      "inputs": [
        {
          "internalType": "contract IERC20",
          "name": "",
          "type": "address"
        },
        {
          "internalType": "contract IERC20",
          "name": "",
          "type": "address"
        }
      ],
      "name": "getPoolId",
      "outputs": [
        {
          "internalType": "uint256",
          "name": "",
          "type": "uint256"
        }
      ],
      "stateMutability": "view",
      "type": "function"
    },
    {
      "inputs": [],
      "name": "owner",
      "outputs": [
        {
          "internalType": "address",
          "name": "",
          "type": "address"
        }
      ],
      "stateMutability": "view",
      "type": "function"
    },
    {
      "inputs": [],
      "name": "renounceOwnership",
      "outputs": [],
      "stateMutability": "nonpayable",
      "type": "function"
    },
    {
      "inputs": [
        {
          "internalType": "uint256",
          "name": "_amountIn",
          "type": "uint256"
        },
        {
          "internalType": "address[]",
          "name": "_path",
          "type": "address[]"
        },
        {
          "internalType": "address",
          "name": "_to",
          "type": "address"
        }
      ],
      "name": "swap",
      "outputs": [],
      "stateMutability": "nonpayable",
      "type": "function"
    },
    {
      "inputs": [
        {
          "internalType": "address",
          "name": "newOwner",
          "type": "address"
        }
      ],
      "name": "transferOwnership",
      "outputs": [],
      "stateMutability": "nonpayable",
      "type": "function"
    },
    {
      "inputs": [
        {
          "internalType": "contract IERC20",
          "name": "token",
          "type": "address"
        },
        {
          "internalType": "uint256",
          "name": "_amount",
          "type": "uint256"
        },
        {
          "internalType": "uint256",
          "name": "_f_amount",
          "type": "uint256"
        }
      ],
      "name": "updateLiquidity",
      "outputs": [],
      "stateMutability": "nonpayable",
      "type": "function"
    }
  ],
  "bytecode": "0x60806040523480156200001157600080fd5b506040516200201b3803806200201b833981810160405281019062000037919062000270565b620000576200004b620000e160201b60201c565b620000e960201b60201c565b81600160006101000a81548173ffffffffffffffffffffffffffffffffffffffff021916908373ffffffffffffffffffffffffffffffffffffffff16021790555080600260006101000a81548173ffffffffffffffffffffffffffffffffffffffff021916908373ffffffffffffffffffffffffffffffffffffffff1602179055505050620002b7565b600033905090565b60008060009054906101000a900473ffffffffffffffffffffffffffffffffffffffff169050816000806101000a81548173ffffffffffffffffffffffffffffffffffffffff021916908373ffffffffffffffffffffffffffffffffffffffff1602179055508173ffffffffffffffffffffffffffffffffffffffff168173ffffffffffffffffffffffffffffffffffffffff167f8be0079c531659141344cd1fd0a4f28419497f9722a3daafe3b4186f6b6457e060405160405180910390a35050565b600080fd5b600073ffffffffffffffffffffffffffffffffffffffff82169050919050565b6000620001df82620001b2565b9050919050565b6000620001f382620001d2565b9050919050565b6200020581620001e6565b81146200021157600080fd5b50565b6000815190506200022581620001fa565b92915050565b60006200023882620001d2565b9050919050565b6200024a816200022b565b81146200025657600080fd5b50565b6000815190506200026a816200023f565b92915050565b600080604083850312156200028a5762000289620001ad565b5b60006200029a8582860162000214565b9250506020620002ad8582860162000259565b9150509250929050565b611d5480620002c76000396000f3fe608060405234801561001057600080fd5b506004361061009e5760003560e01c80636d368de7116100665780636d368de71461015d578063715018a6146101795780638da5cb5b14610183578063a40103d4146101a1578063f2fde38b146101bd5761009e565b8063068bcd8d146100a357806311ac7e15146100d75780631c95b0f3146100f357806326121ff01461010f5780632ef61c211461012d575b600080fd5b6100bd60048036038101906100b891906112c5565b6101d9565b6040516100ce959493929190611380565b60405180910390f35b6100f160048036038101906100ec9190611423565b61024f565b005b61010d6004803603810190610108919061148a565b610449565b005b6101176106a9565b60405161012491906114dd565b60405180910390f35b610147600480360381019061014291906114f8565b6106cf565b6040516101549190611538565b60405180910390f35b61017760048036038101906101729190611553565b6106f4565b005b610181610884565b005b61018b610898565b604051610198919061158f565b60405180910390f35b6101bb60048036038101906101b6919061163b565b6108c1565b005b6101d760048036038101906101d291906116af565b610d7c565b005b60056020528060005260406000206000915090508060000160009054906101000a900473ffffffffffffffffffffffffffffffffffffffff16908060010160009054906101000a900473ffffffffffffffffffffffffffffffffffffffff16908060020154908060030154908060040154905085565b610257610dff565b600260009054906101000a900473ffffffffffffffffffffffffffffffffffffffff1673ffffffffffffffffffffffffffffffffffffffff168473ffffffffffffffffffffffffffffffffffffffff16036102e7576040517f08c379a00000000000000000000000000000000000000000000000000000000081526004016102de90611739565b60405180910390fd5b600073ffffffffffffffffffffffffffffffffffffffff168473ffffffffffffffffffffffffffffffffffffffff1603610356576040517f08c379a000000000000000000000000000000000000000000000000000000000815260040161034d906117a5565b60405180910390fd5b6000600460008673ffffffffffffffffffffffffffffffffffffffff1673ffffffffffffffffffffffffffffffffffffffff1681526020019081526020016000206000600260009054906101000a900473ffffffffffffffffffffffffffffffffffffffff1673ffffffffffffffffffffffffffffffffffffffff1673ffffffffffffffffffffffffffffffffffffffff1681526020019081526020016000205414610437576040517f08c379a000000000000000000000000000000000000000000000000000000000815260040161042e90611811565b60405180910390fd5b61044384848484610e7d565b50505050565b610451610dff565b6000600460008573ffffffffffffffffffffffffffffffffffffffff1673ffffffffffffffffffffffffffffffffffffffff1681526020019081526020016000206000600260009054906101000a900473ffffffffffffffffffffffffffffffffffffffff1673ffffffffffffffffffffffffffffffffffffffff1673ffffffffffffffffffffffffffffffffffffffff1681526020019081526020016000205403610532576040517f08c379a00000000000000000000000000000000000000000000000000000000081526004016105299061187d565b60405180910390fd5b8160056000600460008773ffffffffffffffffffffffffffffffffffffffff1673ffffffffffffffffffffffffffffffffffffffff1681526020019081526020016000206000600260009054906101000a900473ffffffffffffffffffffffffffffffffffffffff1673ffffffffffffffffffffffffffffffffffffffff1673ffffffffffffffffffffffffffffffffffffffff168152602001908152602001600020548152602001908152602001600020600201819055508060056000600460008773ffffffffffffffffffffffffffffffffffffffff1673ffffffffffffffffffffffffffffffffffffffff1681526020019081526020016000206000600260009054906101000a900473ffffffffffffffffffffffffffffffffffffffff1673ffffffffffffffffffffffffffffffffffffffff1673ffffffffffffffffffffffffffffffffffffffff16815260200190815260200160002054815260200190815260200160002060030181905550505050565b600260009054906101000a900473ffffffffffffffffffffffffffffffffffffffff1681565b6004602052816000526040600020602052806000526040600020600091509150505481565b6106fc610dff565b6000600460008373ffffffffffffffffffffffffffffffffffffffff1673ffffffffffffffffffffffffffffffffffffffff1681526020019081526020016000206000600260009054906101000a900473ffffffffffffffffffffffffffffffffffffffff1673ffffffffffffffffffffffffffffffffffffffff1673ffffffffffffffffffffffffffffffffffffffff16815260200190815260200160002054036107dd576040517f08c379a00000000000000000000000000000000000000000000000000000000081526004016107d49061187d565b60405180910390fd5b6000600460008373ffffffffffffffffffffffffffffffffffffffff1673ffffffffffffffffffffffffffffffffffffffff1681526020019081526020016000206000600260009054906101000a900473ffffffffffffffffffffffffffffffffffffffff1673ffffffffffffffffffffffffffffffffffffffff1673ffffffffffffffffffffffffffffffffffffffff1681526020019081526020016000208190555050565b61088c610dff565b610896600061107f565b565b60008060009054906101000a900473ffffffffffffffffffffffffffffffffffffffff16905090565b6002838390501015610908576040517f08c379a00000000000000000000000000000000000000000000000000000000081526004016108ff906118e9565b60405180910390fd5b60008383600081811061091e5761091d611909565b5b905060200201602081019061093391906116af565b90506000808585600181811061094c5761094b611909565b5b905060200201602081019061096191906116af565b90506000600460008573ffffffffffffffffffffffffffffffffffffffff1673ffffffffffffffffffffffffffffffffffffffff16815260200190815260200160002060008373ffffffffffffffffffffffffffffffffffffffff1673ffffffffffffffffffffffffffffffffffffffff16815260200190815260200160002054905060008103610a27576040517f08c379a0000000000000000000000000000000000000000000000000000000008152600401610a1e9061187d565b60405180910390fd5b6000600560008381526020019081526020016000209050600260009054906101000a900473ffffffffffffffffffffffffffffffffffffffff1673ffffffffffffffffffffffffffffffffffffffff168573ffffffffffffffffffffffffffffffffffffffff1614610bd6578473ffffffffffffffffffffffffffffffffffffffff166323b872dd33600160009054906101000a900473ffffffffffffffffffffffffffffffffffffffff168c6040518463ffffffff1660e01b8152600401610af293929190611938565b6020604051808303816000875af1158015610b11573d6000803e3d6000fd5b505050506040513d601f19601f82011682018060405250810190610b3591906119a7565b50610b40818a611143565b9350600160009054906101000a900473ffffffffffffffffffffffffffffffffffffffff1673ffffffffffffffffffffffffffffffffffffffff1663d1d21f1787866040518363ffffffff1660e01b8152600401610b9f9291906119d4565b600060405180830381600087803b158015610bb957600080fd5b505af1158015610bcd573d6000803e3d6000fd5b50505050610d71565b600160009054906101000a900473ffffffffffffffffffffffffffffffffffffffff1673ffffffffffffffffffffffffffffffffffffffff166326121ff06040518163ffffffff1660e01b8152600401602060405180830381865afa158015610c43573d6000803e3d6000fd5b505050506040513d601f19601f82011682018060405250810190610c679190611a3b565b73ffffffffffffffffffffffffffffffffffffffff16639dc29fac338b6040518363ffffffff1660e01b8152600401610ca19291906119d4565b600060405180830381600087803b158015610cbb57600080fd5b505af1158015610ccf573d6000803e3d6000fd5b50505050610cdd818a6111e0565b9350600160009054906101000a900473ffffffffffffffffffffffffffffffffffffffff1673ffffffffffffffffffffffffffffffffffffffff1663f5537ede8688876040518463ffffffff1660e01b8152600401610d3e93929190611a68565b600060405180830381600087803b158015610d5857600080fd5b505af1158015610d6c573d6000803e3d6000fd5b505050505b505050505050505050565b610d84610dff565b600073ffffffffffffffffffffffffffffffffffffffff168173ffffffffffffffffffffffffffffffffffffffff1603610df3576040517f08c379a0000000000000000000000000000000000000000000000000000000008152600401610dea90611b11565b60405180910390fd5b610dfc8161107f565b50565b610e0761127d565b73ffffffffffffffffffffffffffffffffffffffff16610e25610898565b73ffffffffffffffffffffffffffffffffffffffff1614610e7b576040517f08c379a0000000000000000000000000000000000000000000000000000000008152600401610e7290611b7d565b60405180910390fd5b565b60006040518060a001604052808673ffffffffffffffffffffffffffffffffffffffff168152602001600260009054906101000a900473ffffffffffffffffffffffffffffffffffffffff1673ffffffffffffffffffffffffffffffffffffffff16815260200185815260200184815260200183815250905060036000815480929190610f0990611bcc565b9190505550600354600460008773ffffffffffffffffffffffffffffffffffffffff1673ffffffffffffffffffffffffffffffffffffffff1681526020019081526020016000206000600260009054906101000a900473ffffffffffffffffffffffffffffffffffffffff1673ffffffffffffffffffffffffffffffffffffffff1673ffffffffffffffffffffffffffffffffffffffff168152602001908152602001600020819055508060056000600354815260200190815260200160002060008201518160000160006101000a81548173ffffffffffffffffffffffffffffffffffffffff021916908373ffffffffffffffffffffffffffffffffffffffff16021790555060208201518160010160006101000a81548173ffffffffffffffffffffffffffffffffffffffff021916908373ffffffffffffffffffffffffffffffffffffffff1602179055506040820151816002015560608201518160030155608082015181600401559050505050505050565b60008060009054906101000a900473ffffffffffffffffffffffffffffffffffffffff169050816000806101000a81548173ffffffffffffffffffffffffffffffffffffffff021916908373ffffffffffffffffffffffffffffffffffffffff1602179055508173ffffffffffffffffffffffffffffffffffffffff168173ffffffffffffffffffffffffffffffffffffffff167f8be0079c531659141344cd1fd0a4f28419497f9722a3daafe3b4186f6b6457e060405160405180910390a35050565b6000808360030154846002015461115a9190611c14565b9050600083856003015461116e9190611c56565b90506000818361117e9190611cb9565b905060008187600301546111929190611cea565b905060006127108860040154836111a99190611c14565b6111b39190611cb9565b905080826111c19190611cea565b9550838860020181905550828860030181905550505050505092915050565b600080836003015484600201546111f79190611c14565b9050600083856003015461120b9190611c56565b90506000818361121b9190611cb9565b9050600081876002015461122f9190611cea565b905060006127108860040154836112469190611c14565b6112509190611cb9565b9050808261125e9190611cea565b9550828860020181905550838860030181905550505050505092915050565b600033905090565b600080fd5b600080fd5b6000819050919050565b6112a28161128f565b81146112ad57600080fd5b50565b6000813590506112bf81611299565b92915050565b6000602082840312156112db576112da611285565b5b60006112e9848285016112b0565b91505092915050565b600073ffffffffffffffffffffffffffffffffffffffff82169050919050565b6000819050919050565b600061133761133261132d846112f2565b611312565b6112f2565b9050919050565b60006113498261131c565b9050919050565b600061135b8261133e565b9050919050565b61136b81611350565b82525050565b61137a8161128f565b82525050565b600060a0820190506113956000830188611362565b6113a26020830187611362565b6113af6040830186611371565b6113bc6060830185611371565b6113c96080830184611371565b9695505050505050565b60006113de826112f2565b9050919050565b60006113f0826113d3565b9050919050565b611400816113e5565b811461140b57600080fd5b50565b60008135905061141d816113f7565b92915050565b6000806000806080858703121561143d5761143c611285565b5b600061144b8782880161140e565b945050602061145c878288016112b0565b935050604061146d878288016112b0565b925050606061147e878288016112b0565b91505092959194509250565b6000806000606084860312156114a3576114a2611285565b5b60006114b18682870161140e565b93505060206114c2868287016112b0565b92505060406114d3868287016112b0565b9150509250925092565b60006020820190506114f26000830184611362565b92915050565b6000806040838503121561150f5761150e611285565b5b600061151d8582860161140e565b925050602061152e8582860161140e565b9150509250929050565b600060208201905061154d6000830184611371565b92915050565b60006020828403121561156957611568611285565b5b60006115778482850161140e565b91505092915050565b611589816113d3565b82525050565b60006020820190506115a46000830184611580565b92915050565b600080fd5b600080fd5b600080fd5b60008083601f8401126115cf576115ce6115aa565b5b8235905067ffffffffffffffff8111156115ec576115eb6115af565b5b602083019150836020820283011115611608576116076115b4565b5b9250929050565b611618816113d3565b811461162357600080fd5b50565b6000813590506116358161160f565b92915050565b6000806000806060858703121561165557611654611285565b5b6000611663878288016112b0565b945050602085013567ffffffffffffffff8111156116845761168361128a565b5b611690878288016115b9565b935093505060406116a387828801611626565b91505092959194509250565b6000602082840312156116c5576116c4611285565b5b60006116d384828501611626565b91505092915050565b600082825260208201905092915050565b7f506f6f6c733a206964656e746963616c20616464726573736573000000000000600082015250565b6000611723601a836116dc565b915061172e826116ed565b602082019050919050565b6000602082019050818103600083015261175281611716565b9050919050565b7f506f6f6c733a207a65726f206164647265737300000000000000000000000000600082015250565b600061178f6013836116dc565b915061179a82611759565b602082019050919050565b600060208201905081810360008301526117be81611782565b9050919050565b7f506f6f6c733a20706f6f6c206578697374730000000000000000000000000000600082015250565b60006117fb6012836116dc565b9150611806826117c5565b602082019050919050565b6000602082019050818103600083015261182a816117ee565b9050919050565b7f506f6f6c733a20706f6f6c206e6f742065786973747300000000000000000000600082015250565b60006118676016836116dc565b915061187282611831565b602082019050919050565b600060208201905081810360008301526118968161185a565b9050919050565b7f506f6f6c733a20696e76616c6964207061746800000000000000000000000000600082015250565b60006118d36013836116dc565b91506118de8261189d565b602082019050919050565b60006020820190508181036000830152611902816118c6565b9050919050565b7f4e487b7100000000000000000000000000000000000000000000000000000000600052603260045260246000fd5b600060608201905061194d6000830186611580565b61195a6020830185611580565b6119676040830184611371565b949350505050565b60008115159050919050565b6119848161196f565b811461198f57600080fd5b50565b6000815190506119a18161197b565b92915050565b6000602082840312156119bd576119bc611285565b5b60006119cb84828501611992565b91505092915050565b60006040820190506119e96000830185611580565b6119f66020830184611371565b9392505050565b6000611a08826113d3565b9050919050565b611a18816119fd565b8114611a2357600080fd5b50565b600081519050611a3581611a0f565b92915050565b600060208284031215611a5157611a50611285565b5b6000611a5f84828501611a26565b91505092915050565b6000606082019050611a7d6000830186611362565b611a8a6020830185611580565b611a976040830184611371565b949350505050565b7f4f776e61626c653a206e6577206f776e657220697320746865207a65726f206160008201527f6464726573730000000000000000000000000000000000000000000000000000602082015250565b6000611afb6026836116dc565b9150611b0682611a9f565b604082019050919050565b60006020820190508181036000830152611b2a81611aee565b9050919050565b7f4f776e61626c653a2063616c6c6572206973206e6f7420746865206f776e6572600082015250565b6000611b676020836116dc565b9150611b7282611b31565b602082019050919050565b60006020820190508181036000830152611b9681611b5a565b9050919050565b7f4e487b7100000000000000000000000000000000000000000000000000000000600052601160045260246000fd5b6000611bd78261128f565b91507fffffffffffffffffffffffffffffffffffffffffffffffffffffffffffffffff8203611c0957611c08611b9d565b5b600182019050919050565b6000611c1f8261128f565b9150611c2a8361128f565b9250828202611c388161128f565b91508282048414831517611c4f57611c4e611b9d565b5b5092915050565b6000611c618261128f565b9150611c6c8361128f565b9250828201905080821115611c8457611c83611b9d565b5b92915050565b7f4e487b7100000000000000000000000000000000000000000000000000000000600052601260045260246000fd5b6000611cc48261128f565b9150611ccf8361128f565b925082611cdf57611cde611c8a565b5b828204905092915050565b6000611cf58261128f565b9150611d008361128f565b9250828203905081811115611d1857611d17611b9d565b5b9291505056fea26469706673582212206fb87b2272beca67161a38587541e2bab090fd3e88f2998de9394ac2bfdfa9c564736f6c63430008120033",
  "linkReferences": {},
  "deployedLinkReferences": {}
}