{
  "_format": "hh-sol-artifact-1",
  "contractName": "vault",
  "sourceName": "contracts/vault.sol",
  "abi": [
    {
      "inputs": [
        {
          "internalType": "address",
          "name": "_dev",
          "type": "address"
        }
      ],
      "stateMutability": "nonpayable",
      "type": "constructor"
    },
    {
      "inputs": [
        {
          "internalType": "uint256",
          "name": "amountIn",
          "type": "uint256"
        },
        {
          "internalType": "uint256",
          "name": "amountOut",
          "type": "uint256"
        },
        {
          "internalType": "address",
          "name": "XOwner",
          "type": "address"
        },
        {
          "internalType": "address",
          "name": "tokenX",
          "type": "address"
        }
      ],
      "name": "depositTransfer",
      "outputs": [],
      "stateMutability": "nonpayable",
      "type": "function"
    },
    {
      "inputs": [
        {
          "internalType": "address",
          "name": "_newdev",
          "type": "address"
        }
      ],
      "name": "setDev",
      "outputs": [],
      "stateMutability": "nonpayable",
      "type": "function"
    },
    {
      "inputs": [
        {
          "internalType": "address",
          "name": "_AddrF",
          "type": "address"
        }
      ],
      "name": "setFAddr",
      "outputs": [],
      "stateMutability": "nonpayable",
      "type": "function"
    },
    {
      "inputs": [
        {
          "internalType": "address",
          "name": "_subscribe",
          "type": "address"
        }
      ],
      "name": "setSubscribe",
      "outputs": [],
      "stateMutability": "nonpayable",
      "type": "function"
    },
    {
      "inputs": [
        {
          "internalType": "address",
          "name": "_swap",
          "type": "address"
        }
      ],
      "name": "setSwap",
      "outputs": [],
      "stateMutability": "nonpayable",
      "type": "function"
    },
    {
      "inputs": [
        {
          "internalType": "address",
          "name": "XOwner",
          "type": "address"
        },
        {
          "internalType": "address",
          "name": "tokenX",
          "type": "address"
        },
        {
          "internalType": "uint256",
          "name": "amountX",
          "type": "uint256"
        },
        {
          "internalType": "uint256",
          "name": "amountF",
          "type": "uint256"
        },
        {
          "internalType": "bool",
          "name": "isXToF",
          "type": "bool"
        }
      ],
      "name": "swapTransfer",
      "outputs": [],
      "stateMutability": "nonpayable",
      "type": "function"
    },
    {
      "inputs": [
        {
          "internalType": "uint256",
          "name": "amountIn",
          "type": "uint256"
        },
        {
          "internalType": "uint256",
          "name": "amountOut",
          "type": "uint256"
        },
        {
          "internalType": "address",
          "name": "XOwner",
          "type": "address"
        },
        {
          "internalType": "address",
          "name": "tokenX",
          "type": "address"
        }
      ],
      "name": "withdrawTransfer",
      "outputs": [],
      "stateMutability": "nonpayable",
      "type": "function"
    }
  ],
  "bytecode": "0x60806040523480156200001157600080fd5b50604051620015ba380380620015ba8339818101604052810190620000379190620000e9565b80600160006101000a81548173ffffffffffffffffffffffffffffffffffffffff021916908373ffffffffffffffffffffffffffffffffffffffff160217905550506200011b565b600080fd5b600073ffffffffffffffffffffffffffffffffffffffff82169050919050565b6000620000b18262000084565b9050919050565b620000c381620000a4565b8114620000cf57600080fd5b50565b600081519050620000e381620000b8565b92915050565b6000602082840312156200010257620001016200007f565b5b60006200011284828501620000d2565b91505092915050565b61148f806200012b6000396000f3fe608060405234801561001057600080fd5b506004361061007d5760003560e01c806358db874d1161005b57806358db874d146100d65780639e389cec146100f2578063acb3c0731461010e578063d477f05f1461012a5761007d565b806302fb8ca51461008257806309cb16db1461009e578063549c796e146100ba575b600080fd5b61009c60048036038101906100979190610e91565b610146565b005b6100b860048036038101906100b39190610ef4565b61021a565b005b6100d460048036038101906100cf9190610f93565b610482565b005b6100f060048036038101906100eb9190610ef4565b610a3f565b005b61010c60048036038101906101079190610e91565b610be9565b005b61012860048036038101906101239190610e91565b610cbd565b005b610144600480360381019061013f9190610e91565b610d5a565b005b600160009054906101000a900473ffffffffffffffffffffffffffffffffffffffff1673ffffffffffffffffffffffffffffffffffffffff163373ffffffffffffffffffffffffffffffffffffffff16146101d6576040517f08c379a00000000000000000000000000000000000000000000000000000000081526004016101cd9061106b565b60405180910390fd5b80600360006101000a81548173ffffffffffffffffffffffffffffffffffffffff021916908373ffffffffffffffffffffffffffffffffffffffff16021790555050565b600360009054906101000a900473ffffffffffffffffffffffffffffffffffffffff1673ffffffffffffffffffffffffffffffffffffffff163373ffffffffffffffffffffffffffffffffffffffff16146102aa576040517f08c379a00000000000000000000000000000000000000000000000000000000081526004016102a1906110d7565b60405180910390fd5b838173ffffffffffffffffffffffffffffffffffffffff166370a08231846040518263ffffffff1660e01b81526004016102e49190611106565b602060405180830381865afa158015610301573d6000803e3d6000fd5b505050506040513d601f19601f820116820180604052508101906103259190611136565b1015610366576040517f08c379a000000000000000000000000000000000000000000000000000000000815260040161035d906111af565b60405180910390fd5b8073ffffffffffffffffffffffffffffffffffffffff166323b872dd8330876040518463ffffffff1660e01b81526004016103a3939291906111de565b6020604051808303816000875af11580156103c2573d6000803e3d6000fd5b505050506040513d601f19601f820116820180604052508101906103e6919061122a565b506000600260009054906101000a900473ffffffffffffffffffffffffffffffffffffffff1690508073ffffffffffffffffffffffffffffffffffffffff166340c10f1984866040518363ffffffff1660e01b8152600401610449929190611257565b600060405180830381600087803b15801561046357600080fd5b505af1158015610477573d6000803e3d6000fd5b505050505050505050565b60008054906101000a900473ffffffffffffffffffffffffffffffffffffffff1673ffffffffffffffffffffffffffffffffffffffff163373ffffffffffffffffffffffffffffffffffffffff1614610510576040517f08c379a0000000000000000000000000000000000000000000000000000000008152600401610507906112cc565b60405180910390fd5b6000600260009054906101000a900473ffffffffffffffffffffffffffffffffffffffff16905060011515821515036107b057838573ffffffffffffffffffffffffffffffffffffffff166370a08231886040518263ffffffff1660e01b815260040161057d9190611106565b602060405180830381865afa15801561059a573d6000803e3d6000fd5b505050506040513d601f19601f820116820180604052508101906105be9190611136565b10156105ff576040517f08c379a00000000000000000000000000000000000000000000000000000000081526004016105f690611338565b60405180910390fd5b838573ffffffffffffffffffffffffffffffffffffffff1663dd62ed3e88306040518363ffffffff1660e01b815260040161063b929190611358565b602060405180830381865afa158015610658573d6000803e3d6000fd5b505050506040513d601f19601f8201168201806040525081019061067c9190611136565b10156106bd576040517f08c379a00000000000000000000000000000000000000000000000000000000081526004016106b4906113cd565b60405180910390fd5b8473ffffffffffffffffffffffffffffffffffffffff166323b872dd8730876040518463ffffffff1660e01b81526004016106fa939291906111de565b6020604051808303816000875af1158015610719573d6000803e3d6000fd5b505050506040513d601f19601f8201168201806040525081019061073d919061122a565b508073ffffffffffffffffffffffffffffffffffffffff166340c10f1987856040518363ffffffff1660e01b8152600401610779929190611257565b600060405180830381600087803b15801561079357600080fd5b505af11580156107a7573d6000803e3d6000fd5b50505050610a37565b82600260009054906101000a900473ffffffffffffffffffffffffffffffffffffffff1673ffffffffffffffffffffffffffffffffffffffff166370a08231886040518263ffffffff1660e01b815260040161080c9190611106565b602060405180830381865afa158015610829573d6000803e3d6000fd5b505050506040513d601f19601f8201168201806040525081019061084d9190611136565b101561088e576040517f08c379a000000000000000000000000000000000000000000000000000000000815260040161088590611439565b60405180910390fd5b838573ffffffffffffffffffffffffffffffffffffffff166370a08231306040518263ffffffff1660e01b81526004016108c89190611106565b602060405180830381865afa1580156108e5573d6000803e3d6000fd5b505050506040513d601f19601f820116820180604052508101906109099190611136565b101561094a576040517f08c379a000000000000000000000000000000000000000000000000000000000815260040161094190611338565b60405180910390fd5b8073ffffffffffffffffffffffffffffffffffffffff16639dc29fac87866040518363ffffffff1660e01b8152600401610985929190611257565b600060405180830381600087803b15801561099f57600080fd5b505af11580156109b3573d6000803e3d6000fd5b505050508473ffffffffffffffffffffffffffffffffffffffff1663a9059cbb87866040518363ffffffff1660e01b81526004016109f2929190611257565b6020604051808303816000875af1158015610a11573d6000803e3d6000fd5b505050506040513d601f19601f82011682018060405250810190610a35919061122a565b505b505050505050565b600360009054906101000a900473ffffffffffffffffffffffffffffffffffffffff1673ffffffffffffffffffffffffffffffffffffffff163373ffffffffffffffffffffffffffffffffffffffff1614610acf576040517f08c379a0000000000000000000000000000000000000000000000000000000008152600401610ac6906110d7565b60405180910390fd5b6000600260009054906101000a900473ffffffffffffffffffffffffffffffffffffffff1690508073ffffffffffffffffffffffffffffffffffffffff16639dc29fac84876040518363ffffffff1660e01b8152600401610b31929190611257565b600060405180830381600087803b158015610b4b57600080fd5b505af1158015610b5f573d6000803e3d6000fd5b505050508173ffffffffffffffffffffffffffffffffffffffff1663a9059cbb84866040518363ffffffff1660e01b8152600401610b9e929190611257565b6020604051808303816000875af1158015610bbd573d6000803e3d6000fd5b505050506040513d601f19601f82011682018060405250810190610be1919061122a565b505050505050565b600160009054906101000a900473ffffffffffffffffffffffffffffffffffffffff1673ffffffffffffffffffffffffffffffffffffffff163373ffffffffffffffffffffffffffffffffffffffff1614610c79576040517f08c379a0000000000000000000000000000000000000000000000000000000008152600401610c709061106b565b60405180910390fd5b80600260006101000a81548173ffffffffffffffffffffffffffffffffffffffff021916908373ffffffffffffffffffffffffffffffffffffffff16021790555050565b600160009054906101000a900473ffffffffffffffffffffffffffffffffffffffff1673ffffffffffffffffffffffffffffffffffffffff163373ffffffffffffffffffffffffffffffffffffffff1614610d1757600080fd5b806000806101000a81548173ffffffffffffffffffffffffffffffffffffffff021916908373ffffffffffffffffffffffffffffffffffffffff16021790555050565b600160009054906101000a900473ffffffffffffffffffffffffffffffffffffffff1673ffffffffffffffffffffffffffffffffffffffff163373ffffffffffffffffffffffffffffffffffffffff1614610dea576040517f08c379a0000000000000000000000000000000000000000000000000000000008152600401610de19061106b565b60405180910390fd5b80600160006101000a81548173ffffffffffffffffffffffffffffffffffffffff021916908373ffffffffffffffffffffffffffffffffffffffff16021790555050565b600080fd5b600073ffffffffffffffffffffffffffffffffffffffff82169050919050565b6000610e5e82610e33565b9050919050565b610e6e81610e53565b8114610e7957600080fd5b50565b600081359050610e8b81610e65565b92915050565b600060208284031215610ea757610ea6610e2e565b5b6000610eb584828501610e7c565b91505092915050565b6000819050919050565b610ed181610ebe565b8114610edc57600080fd5b50565b600081359050610eee81610ec8565b92915050565b60008060008060808587031215610f0e57610f0d610e2e565b5b6000610f1c87828801610edf565b9450506020610f2d87828801610edf565b9350506040610f3e87828801610e7c565b9250506060610f4f87828801610e7c565b91505092959194509250565b60008115159050919050565b610f7081610f5b565b8114610f7b57600080fd5b50565b600081359050610f8d81610f67565b92915050565b600080600080600060a08688031215610faf57610fae610e2e565b5b6000610fbd88828901610e7c565b9550506020610fce88828901610e7c565b9450506040610fdf88828901610edf565b9350506060610ff088828901610edf565b925050608061100188828901610f7e565b9150509295509295909350565b600082825260208201905092915050565b7f5065726d697373696f6e2064656e696564000000000000000000000000000000600082015250565b600061105560118361100e565b91506110608261101f565b602082019050919050565b6000602082019050818103600083015261108481611048565b9050919050565b7f4e6f742073756273637269626500000000000000000000000000000000000000600082015250565b60006110c1600d8361100e565b91506110cc8261108b565b602082019050919050565b600060208201905081810360008301526110f0816110b4565b9050919050565b61110081610e53565b82525050565b600060208201905061111b60008301846110f7565b92915050565b60008151905061113081610ec8565b92915050565b60006020828403121561114c5761114b610e2e565b5b600061115a84828501611121565b91505092915050565b7f496e73756666696369656e742066756e64000000000000000000000000000000600082015250565b600061119960118361100e565b91506111a482611163565b602082019050919050565b600060208201905081810360008301526111c88161118c565b9050919050565b6111d881610ebe565b82525050565b60006060820190506111f360008301866110f7565b61120060208301856110f7565b61120d60408301846111cf565b949350505050565b60008151905061122481610f67565b92915050565b6000602082840312156112405761123f610e2e565b5b600061124e84828501611215565b91505092915050565b600060408201905061126c60008301856110f7565b61127960208301846111cf565b9392505050565b7f4e6f742053776170000000000000000000000000000000000000000000000000600082015250565b60006112b660088361100e565b91506112c182611280565b602082019050919050565b600060208201905081810360008301526112e5816112a9565b9050919050565b7f496e73756666696369656e7420546f6b656e0000000000000000000000000000600082015250565b600061132260128361100e565b915061132d826112ec565b602082019050919050565b6000602082019050818103600083015261135181611315565b9050919050565b600060408201905061136d60008301856110f7565b61137a60208301846110f7565b9392505050565b7f496e73756666696369656e7420416c6c6f77616e636500000000000000000000600082015250565b60006113b760168361100e565b91506113c282611381565b602082019050919050565b600060208201905081810360008301526113e6816113aa565b9050919050565b7f496e73756666696369656e7420546f6b656e4600000000000000000000000000600082015250565b600061142360138361100e565b915061142e826113ed565b602082019050919050565b6000602082019050818103600083015261145281611416565b905091905056fea2646970667358221220237a10003463bc0cbdcd55cb892a2f6ed02ca45a1bcd72b04096551a7e04aa6d64736f6c63430008120033",
  "linkReferences": {},
  "deployedLinkReferences": {}
}